{
  "contractName": "CSATokenFactory",
  "abi": [
    {
      "constant": true,
      "inputs": [
        {
          "name": "",
          "type": "address"
        }
      ],
      "name": "csaChildren",
      "outputs": [
        {
          "name": "tAddress",
          "type": "address"
        },
        {
          "name": "name",
          "type": "string"
        },
        {
          "name": "initial_supply",
          "type": "uint256"
        },
        {
          "name": "token_price",
          "type": "uint256"
        }
      ],
      "payable": false,
      "stateMutability": "view",
      "type": "function"
    },
    {
      "constant": true,
      "inputs": [],
      "name": "getChildrenCount",
      "outputs": [
        {
          "name": "",
          "type": "uint256"
        }
      ],
      "payable": false,
      "stateMutability": "view",
      "type": "function"
    },
    {
      "constant": true,
      "inputs": [
        {
          "name": "",
          "type": "uint256"
        }
      ],
      "name": "childrenAddresses",
      "outputs": [
        {
          "name": "",
          "type": "address"
        }
      ],
      "payable": false,
      "stateMutability": "view",
      "type": "function"
    },
    {
      "constant": false,
      "inputs": [
        {
          "name": "_name",
          "type": "string"
        },
        {
          "name": "_initial_supply",
          "type": "uint256"
        },
        {
          "name": "_token_price",
          "type": "uint256"
        }
      ],
      "name": "createCSAToken",
      "outputs": [],
      "payable": true,
      "stateMutability": "payable",
      "type": "function"
    },
    {
      "constant": true,
      "inputs": [
        {
          "name": "childIndex",
          "type": "uint256"
        }
      ],
      "name": "getAddress",
      "outputs": [
        {
          "name": "",
          "type": "address"
        }
      ],
      "payable": false,
      "stateMutability": "view",
      "type": "function"
    },
    {
      "inputs": [],
      "payable": false,
      "stateMutability": "nonpayable",
      "type": "constructor"
    },
    {
      "anonymous": false,
      "inputs": [
        {
          "indexed": false,
          "name": "name",
          "type": "string"
        },
        {
          "indexed": false,
          "name": "initialSupply",
          "type": "uint256"
        }
      ],
      "name": "CSATokenCreated",
      "type": "event"
    }
  ],
  "bytecode": "0x6060604052341561000f57600080fd5b6119278061001e6000396000f30060606040526004361061006d576000357c0100000000000000000000000000000000000000000000000000000000900463ffffffff1680633e600b22146100725780635e6fc8b4146101825780637386bff7146101ab57806384345e381461020e578063b93f9b0a14610272575b600080fd5b341561007d57600080fd5b6100a9600480803573ffffffffffffffffffffffffffffffffffffffff169060200190919050506102d5565b604051808573ffffffffffffffffffffffffffffffffffffffff1673ffffffffffffffffffffffffffffffffffffffff168152602001806020018481526020018381526020018281038252858181546001816001161561010002031660029004815260200191508054600181600116156101000203166002900480156101705780601f1061014557610100808354040283529160200191610170565b820191906000526020600020905b81548152906001019060200180831161015357829003601f168201915b50509550505050505060405180910390f35b341561018d57600080fd5b610195610324565b6040518082815260200191505060405180910390f35b34156101b657600080fd5b6101cc6004808035906020019091905050610330565b604051808273ffffffffffffffffffffffffffffffffffffffff1673ffffffffffffffffffffffffffffffffffffffff16815260200191505060405180910390f35b610270600480803590602001908201803590602001908080601f0160208091040260200160405190810160405280939291908181526020018383808284378201915050505050509190803590602001909190803590602001909190505061036f565b005b341561027d57600080fd5b6102936004808035906020019091905050610684565b604051808273ffffffffffffffffffffffffffffffffffffffff1673ffffffffffffffffffffffffffffffffffffffff16815260200191505060405180910390f35b60016020528060005260406000206000915090508060000160009054906101000a900473ffffffffffffffffffffffffffffffffffffffff169080600101908060020154908060030154905084565b60008080549050905090565b60008181548110151561033f57fe5b90600052602060002090016000915054906101000a900473ffffffffffffffffffffffffffffffffffffffff1681565b600083838361037c6106c7565b8080602001848152602001838152602001828103825285818151815260200191508051906020019080838360005b838110156103c55780820151818401526020810190506103aa565b50505050905090810190601f1680156103f25780820380516001836020036101000a031916815260200191505b50945050505050604051809103906000f080151561040f57600080fd5b90506000805480600101828161042591906106d7565b9160005260206000209001600083909190916101000a81548173ffffffffffffffffffffffffffffffffffffffff021916908373ffffffffffffffffffffffffffffffffffffffff1602179055505080600160008373ffffffffffffffffffffffffffffffffffffffff1673ffffffffffffffffffffffffffffffffffffffff16815260200190815260200160002060000160006101000a81548173ffffffffffffffffffffffffffffffffffffffff021916908373ffffffffffffffffffffffffffffffffffffffff16021790555083600160008373ffffffffffffffffffffffffffffffffffffffff1673ffffffffffffffffffffffffffffffffffffffff168152602001908152602001600020600101908051906020019061054b929190610703565b5082600160008373ffffffffffffffffffffffffffffffffffffffff1673ffffffffffffffffffffffffffffffffffffffff1681526020019081526020016000206002018190555081600160008373ffffffffffffffffffffffffffffffffffffffff1673ffffffffffffffffffffffffffffffffffffffff168152602001908152602001600020600301819055507f2ecd0570a76d624b75b5c274f787ae308893ca55fbb3e8273fb155a709cf950a84846040518080602001838152602001828103825284818151815260200191508051906020019080838360005b83811015610643578082015181840152602081019050610628565b50505050905090810190601f1680156106705780820380516001836020036101000a031916815260200191505b50935050505060405180910390a150505050565b6000808281548110151561069457fe5b906000526020600020900160009054906101000a900473ffffffffffffffffffffffffffffffffffffffff169050919050565b604051611153806107a983390190565b8154818355818115116106fe578183600052602060002091820191016106fd9190610783565b5b505050565b828054600181600116156101000203166002900490600052602060002090601f016020900481019282601f1061074457805160ff1916838001178555610772565b82800160010185558215610772579182015b82811115610771578251825591602001919060010190610756565b5b50905061077f9190610783565b5090565b6107a591905b808211156107a1576000816000905550600101610789565b5090565b9056006060604052341561000f57600080fd5b60405161115338038061115383398101604052808051820191906020018051906020019091908051906020019091905050610048610111565b600033600260006101000a81548173ffffffffffffffffffffffffffffffffffffffff021916908373ffffffffffffffffffffffffffffffffffffffff16021790555082600181905550602060405190810160405280600060018111156100ab57fe5b81525091506001600080548060010182816100c69190610130565b9160005260206000209001600085909190915060008201518160000160006101000a81548160ff021916908360018111156100fd57fe5b02179055505050039050505050505061018f565b6020604051908101604052806000600181111561012a57fe5b81525090565b81548183558181151161015757818360005260206000209182019101610156919061015c565b5b505050565b61018c91905b8082111561018857600080820160006101000a81549060ff021916905550600101610162565b5090565b90565b610fb58061019e6000396000f3006060604052600436106100c5576000357c0100000000000000000000000000000000000000000000000000000000900463ffffffff16806301ffc9a7146100ca57806306fdde0314610124578063095ea7b3146101b257806318160ddd146101f457806323b872dd1461021d5780633de49cc41461027e5780636352211e146102e157806370a08231146103445780637b4fd96e146103915780638da5cb5b146103ba57806395d89b411461040f578063a9059cbb1461049d578063b4b871ce146104df575b600080fd5b34156100d557600080fd5b61010a60048080357bffffffffffffffffffffffffffffffffffffffffffffffffffffffff1916906020019091905050610542565b604051808215151515815260200191505060405180910390f35b341561012f57600080fd5b610137610853565b6040518080602001828103825283818151815260200191508051906020019080838360005b8381101561017757808201518184015260208101905061015c565b50505050905090810190601f1680156101a45780820380516001836020036101000a031916815260200191505b509250505060405180910390f35b34156101bd57600080fd5b6101f2600480803573ffffffffffffffffffffffffffffffffffffffff1690602001909190803590602001909190505061088c565b005b34156101ff57600080fd5b61020761094e565b6040518082815260200191505060405180910390f35b341561022857600080fd5b61027c600480803573ffffffffffffffffffffffffffffffffffffffff1690602001909190803573ffffffffffffffffffffffffffffffffffffffff1690602001909190803590602001909190505061095e565b005b341561028957600080fd5b61029f6004808035906020019091905050610a0f565b604051808273ffffffffffffffffffffffffffffffffffffffff1673ffffffffffffffffffffffffffffffffffffffff16815260200191505060405180910390f35b34156102ec57600080fd5b6103026004808035906020019091905050610a42565b604051808273ffffffffffffffffffffffffffffffffffffffff1673ffffffffffffffffffffffffffffffffffffffff16815260200191505060405180910390f35b341561034f57600080fd5b61037b600480803573ffffffffffffffffffffffffffffffffffffffff16906020019091905050610add565b6040518082815260200191505060405180910390f35b341561039c57600080fd5b6103a4610b26565b6040518082815260200191505060405180910390f35b34156103c557600080fd5b6103cd610b2c565b604051808273ffffffffffffffffffffffffffffffffffffffff1673ffffffffffffffffffffffffffffffffffffffff16815260200191505060405180910390f35b341561041a57600080fd5b610422610b52565b6040518080602001828103825283818151815260200191508051906020019080838360005b83811015610462578082015181840152602081019050610447565b50505050905090810190601f16801561048f5780820380516001836020036101000a031916815260200191505b509250505060405180910390f35b34156104a857600080fd5b6104dd600480803573ffffffffffffffffffffffffffffffffffffffff16906020019091908035906020019091905050610b8b565b005b34156104ea57600080fd5b6105006004808035906020019091905050610c26565b604051808273ffffffffffffffffffffffffffffffffffffffff1673ffffffffffffffffffffffffffffffffffffffff16815260200191505060405180910390f35b600060405180807f737570706f727473496e74657266616365286279746573342900000000000000815250601901905060405180910390207bffffffffffffffffffffffffffffffffffffffffffffffffffffffff1916827bffffffffffffffffffffffffffffffffffffffffffffffffffffffff1916148061084c575060405180807f746f6b656e4d657461646174612875696e743235362c737472696e6729000000815250601d019050604051809103902060405180807f746f6b656e734f664f776e6572286164647265737329000000000000000000008152506016019050604051809103902060405180807f7472616e7366657246726f6d28616464726573732c616464726573732c75696e81526020017f74323536290000000000000000000000000000000000000000000000000000008152506025019050604051809103902060405180807f7472616e7366657228616464726573732c75696e7432353629000000000000008152506019019050604051809103902060405180807f617070726f766528616464726573732c75696e743235362900000000000000008152506018019050604051809103902060405180807f6f776e65724f662875696e7432353629000000000000000000000000000000008152506010019050604051809103902060405180807f62616c616e63654f6628616464726573732900000000000000000000000000008152506012019050604051809103902060405180807f746f74616c537570706c79282900000000000000000000000000000000000000815250600d019050604051809103902060405180807f73796d626f6c28290000000000000000000000000000000000000000000000008152506008019050604051809103902060405180807f6e616d6528290000000000000000000000000000000000000000000000000000815250600601905060405180910390201818181818181818187bffffffffffffffffffffffffffffffffffffffffffffffffffffffff1916827bffffffffffffffffffffffffffffffffffffffffffffffffffffffff1916145b9050919050565b6040805190810160405280600e81526020017f435341206661726d20746f6b656e00000000000000000000000000000000000081525081565b6108963382610c59565b15156108a157600080fd5b6108ab8183610cc5565b7f8c5be1e5ebec7d5bd14f71427d1e84f3dd0314c0f7b2291e5b200ac8c7c3b925338383604051808473ffffffffffffffffffffffffffffffffffffffff1673ffffffffffffffffffffffffffffffffffffffff1681526020018373ffffffffffffffffffffffffffffffffffffffff1673ffffffffffffffffffffffffffffffffffffffff168152602001828152602001935050505060405180910390a15050565b6000600160008054905003905090565b600073ffffffffffffffffffffffffffffffffffffffff168273ffffffffffffffffffffffffffffffffffffffff161415151561099a57600080fd5b3073ffffffffffffffffffffffffffffffffffffffff168273ffffffffffffffffffffffffffffffffffffffff16141515156109d557600080fd5b6109df3382610d1b565b15156109ea57600080fd5b6109f48382610c59565b15156109ff57600080fd5b610a0a838383610d87565b505050565b60056020528060005260406000206000915054906101000a900473ffffffffffffffffffffffffffffffffffffffff1681565b60006003600083815260200190815260200160002060009054906101000a900473ffffffffffffffffffffffffffffffffffffffff169050600073ffffffffffffffffffffffffffffffffffffffff16600260009054906101000a900473ffffffffffffffffffffffffffffffffffffffff1673ffffffffffffffffffffffffffffffffffffffff1614151515610ad857600080fd5b919050565b6000600460008373ffffffffffffffffffffffffffffffffffffffff1673ffffffffffffffffffffffffffffffffffffffff168152602001908152602001600020549050919050565b60015481565b600260009054906101000a900473ffffffffffffffffffffffffffffffffffffffff1681565b6040805190810160405280600381526020017f435341000000000000000000000000000000000000000000000000000000000081525081565b600073ffffffffffffffffffffffffffffffffffffffff168273ffffffffffffffffffffffffffffffffffffffff1614151515610bc757600080fd5b3073ffffffffffffffffffffffffffffffffffffffff168273ffffffffffffffffffffffffffffffffffffffff1614151515610c0257600080fd5b610c0c3382610c59565b1515610c1757600080fd5b610c22338383610d87565b5050565b60036020528060005260406000206000915054906101000a900473ffffffffffffffffffffffffffffffffffffffff1681565b60008273ffffffffffffffffffffffffffffffffffffffff166003600084815260200190815260200160002060009054906101000a900473ffffffffffffffffffffffffffffffffffffffff1673ffffffffffffffffffffffffffffffffffffffff1614905092915050565b806005600084815260200190815260200160002060006101000a81548173ffffffffffffffffffffffffffffffffffffffff021916908373ffffffffffffffffffffffffffffffffffffffff1602179055505050565b60008273ffffffffffffffffffffffffffffffffffffffff166005600084815260200190815260200160002060009054906101000a900473ffffffffffffffffffffffffffffffffffffffff1673ffffffffffffffffffffffffffffffffffffffff1614905092915050565b600460008373ffffffffffffffffffffffffffffffffffffffff1673ffffffffffffffffffffffffffffffffffffffff16815260200190815260200160002060008154809291906001019190505550816003600083815260200190815260200160002060006101000a81548173ffffffffffffffffffffffffffffffffffffffff021916908373ffffffffffffffffffffffffffffffffffffffff160217905550600073ffffffffffffffffffffffffffffffffffffffff168373ffffffffffffffffffffffffffffffffffffffff16141515610ee557600460008473ffffffffffffffffffffffffffffffffffffffff1673ffffffffffffffffffffffffffffffffffffffff16815260200190815260200160002060008154809291906001900391905055506005600082815260200190815260200160002060006101000a81549073ffffffffffffffffffffffffffffffffffffffff02191690555b7fddf252ad1be2c89b69c2b068fc378daa952ba7f163c4a11628f55a4df523b3ef838383604051808473ffffffffffffffffffffffffffffffffffffffff1673ffffffffffffffffffffffffffffffffffffffff1681526020018373ffffffffffffffffffffffffffffffffffffffff1673ffffffffffffffffffffffffffffffffffffffff168152602001828152602001935050505060405180910390a15050505600a165627a7a723058205b569113eb3cc746c8c62aefebe725048daae8e205ee125c3474cc0575b3cf4a0029a165627a7a72305820e56b68aaf17b35b0599ab7ac7108091088633e2bdc96b566d6b72f8a65e4e4c40029",
  "source": "pragma solidity ^0.4.11;\n\nimport \"./CSAToken.sol\";\n\ncontract CSATokenFactory {\n    //maintains all the child contracts\n    struct CSATokenStruct {\n        address tAddress;\n        string name;\n        uint initial_supply;\n        uint token_price;\n    }\n\n    address[] public childrenAddresses;\n\n    mapping(address => CSATokenStruct) public csaChildren;\n\n    event CSATokenCreated(string name, uint initialSupply);\n\n    // default constructor\n    function CSATokenFactory() {\n    }\n\n    function createCSAToken(string _name, uint _initial_supply, uint _token_price) payable {\n        address tAddress = new CSAToken(_name, _initial_supply, _token_price);\n        childrenAddresses.push(tAddress);\n        csaChildren[tAddress].tAddress = tAddress;\n        csaChildren[tAddress].name = _name;\n        csaChildren[tAddress].initial_supply = _initial_supply;\n        csaChildren[tAddress].token_price = _token_price;\n        CSATokenCreated(_name, _initial_supply);\n    }\n\n    // returns the count of the children\n    function getChildrenCount() constant returns (uint) {\n        return childrenAddresses.length;\n    }\n\n    // returns info regarding contract\n    function getAddress(uint childIndex) constant returns (address) {\n        return childrenAddresses[childIndex];\n     }\n}\n",
  "sourcePath": "/home/emack/projects/crypto/csaToken/contracts/CSATokenFactory.sol",
  "compiler": {
    "name": "solc",
    "version": "0.4.18+commit.9cf6e910.Emscripten.clang"
  },
  "schemaVersion": "1.0.1",
  "updatedAt": "2017-12-09T21:55:17.908Z"
}